{
  "address": "0x94A4A70327Dfc762D19Dc1eD8c0c5Ea8609a7Be1",
  "abi": [
    {
      "inputs": [
        {
          "internalType": "address",
          "name": "_verifier_address",
          "type": "address"
        }
      ],
      "stateMutability": "nonpayable",
      "type": "constructor"
    },
    {
      "inputs": [],
      "name": "isVerified",
      "outputs": [
        {
          "internalType": "bool",
          "name": "",
          "type": "bool"
        }
      ],
      "stateMutability": "view",
      "type": "function"
    },
    {
      "inputs": [],
      "name": "verifier_address",
      "outputs": [
        {
          "internalType": "address",
          "name": "",
          "type": "address"
        }
      ],
      "stateMutability": "view",
      "type": "function"
    },
    {
      "inputs": [
        {
          "internalType": "bytes",
          "name": "proof",
          "type": "bytes"
        },
        {
          "internalType": "uint256[]",
          "name": "instances",
          "type": "uint256[]"
        }
      ],
      "name": "verify_contract",
      "outputs": [],
      "stateMutability": "nonpayable",
      "type": "function"
    }
  ],
  "transactionHash": "0x4eabdbe54d4d1d3c7189a2db82892e4912f61e7afb4b740101f2e43690beb578",
  "args": [
    "0xF3e5FdDf70E5Cb9350035887A57FC08A5bbA37B7"
  ],
  "numDeployments": 1,
  "solcInputHash": "8278e169146bd4de4171eb7b5b2c32ff",
  "bytecode": "0x60806040526001805460ff60a01b1916905534801561001d57600080fd5b5060405161037e38038061037e83398101604081905261003c9161006b565b600080546001600160a01b039092166001600160a01b031992831681179091556001805490921617905561009b565b60006020828403121561007d57600080fd5b81516001600160a01b038116811461009457600080fd5b9392505050565b6102d4806100aa6000396000f3fe608060405234801561001057600080fd5b50600436106100415760003560e01c806380007e831461004657806382684d1a1461006f578063f9efdf0d14610084575b600080fd5b60015461005a90600160a01b900460ff1681565b60405190151581526020015b60405180910390f35b61008261007d36600461014c565b6100af565b005b600054610097906001600160a01b031681565b6040516001600160a01b039091168152602001610066565b600154604051631e8e1e1360e01b81526000916001600160a01b031690631e8e1e13906100e6908890889088908890600401610211565b6020604051808303816000875af1158015610105573d6000803e3d6000fd5b505050506040513d601f19601f820116820180604052508101906101299190610275565b90508015610145576001805460ff60a01b1916600160a01b1790555b5050505050565b6000806000806040858703121561016257600080fd5b843567ffffffffffffffff8082111561017a57600080fd5b818701915087601f83011261018e57600080fd5b81358181111561019d57600080fd5b8860208285010111156101af57600080fd5b6020928301965094509086013590808211156101ca57600080fd5b818701915087601f8301126101de57600080fd5b8135818111156101ed57600080fd5b8860208260051b850101111561020257600080fd5b95989497505060200194505050565b6040815283604082015283856060830137600060608583018101829052601f19601f8701168301838103820160208501529081018490526001600160fb1b0384111561025c57600080fd5b8360051b80866080840137016080019695505050505050565b60006020828403121561028757600080fd5b8151801515811461029757600080fd5b939250505056fea2646970667358221220ab8208823fb6f19c6a854a0f61967af662e86cede0ba55e0dbbc19650187321a64736f6c63430008110033",
  "devdoc": {
    "kind": "dev",
    "methods": {},
    "version": 1
  },
  "userdoc": {
    "kind": "user",
    "methods": {},
    "version": 1
  },
  "storageLayout": {
    "storage": [
      {
        "astId": 4,
        "contract": "contracts/GatedContract.sol:GatedContract",
        "label": "verifier_address",
        "offset": 0,
        "slot": "0",
        "type": "t_address"
      },
      {
        "astId": 7,
        "contract": "contracts/GatedContract.sol:GatedContract",
        "label": "verifier",
        "offset": 0,
        "slot": "1",
        "type": "t_contract(Halo2Verifier)231"
      },
      {
        "astId": 10,
        "contract": "contracts/GatedContract.sol:GatedContract",
        "label": "isVerified",
        "offset": 20,
        "slot": "1",
        "type": "t_bool"
      }
    ],
    "types": {
      "t_address": {
        "encoding": "inplace",
        "label": "address",
        "numberOfBytes": "20"
      },
      "t_bool": {
        "encoding": "inplace",
        "label": "bool",
        "numberOfBytes": "1"
      },
      "t_contract(Halo2Verifier)231": {
        "encoding": "inplace",
        "label": "contract Halo2Verifier",
        "numberOfBytes": "20"
      }
    }
  }
}