{
  "address": "0xF3e5FdDf70E5Cb9350035887A57FC08A5bbA37B7",
  "abi": [
    {
      "inputs": [
        {
          "internalType": "bytes",
          "name": "proof",
          "type": "bytes"
        },
        {
          "internalType": "uint256[]",
          "name": "instances",
          "type": "uint256[]"
        }
      ],
      "name": "verifyProof",
      "outputs": [
        {
          "internalType": "bool",
          "name": "",
          "type": "bool"
        }
      ],
      "stateMutability": "nonpayable",
      "type": "function"
    }
  ],
  "transactionHash": "0xe9c3f29cc27c3834ef295b811401233e4639fd77ba687685a14c0bed241e6347",
  "args": [],
  "numDeployments": 1,
  "solcInputHash": "e31d10c9d47049122a8931bc8166e783",
  "bytecode": "0x608060405234801561001057600080fd5b50612f54806100206000396000f3fe608060405234801561001057600080fd5b506004361061002b5760003560e01c80631e8e1e1314610030575b600080fd5b61004361003e366004612e39565b610057565b604051901515815260200160405180910390f35b6000610263565b60008060008435602086013588821086169450888110851694508860038a8b858609850908898283099289526020890191909152149290921696604094850196509390940193505050565b60016020536021600090812092830682529190915260200190565b6000838351602085015b602087038110156100f0578781518309808452602093840193909250016100ce565b8781518309915060208352602080840152602060408401528160608401526002880360808401528760a084015260208360c08560055afa851693508251915085602081016020850394505b828110156101635789855185098a84518609908452601f19958601959094509092019161013b565b8981518509945089825185099490915292909252509095945050505050565b81604052826060526000604060006080600060065afa9091169392505050565b816040526000604060006060600060075afa90911692915050565b8160c0528260e05260006040608080608060065afa9091169392505050565b8160c0526000604060806060608060075afa90911692915050565b81600052826020526107405160405261076051606052610780516080526107a05160a0528360c0528460e0526107c051610100526107e0516101205261080051610140526108205161016052600060206000610180600060085afa600051921690911695945050505050565b7f015ed1eb11aeda63673c5cd1d21e7576d6d9b610127552013d058798ad9942a96105a081905260036105c08190526000919091527f30644e72e131a029b85045b68181585d97816a916871ca8d3c208c16d87cfd47907f30644e72e131a029b85045b68181585d2833e84879b9709143e1f593f0000001906114c435811461146060443514166001169060206114e46115445b8082101561031a57813580845286119490941693602092830192909101906102f7565b506064925061138090506101e45b808410156103475761033c8784868861005e565b945094509450610328565b5060009182208581068252909152602090810161028083015b8084101561037f576103748784868861005e565b945094509450610360565b5060009182208581068252909152602090810161039c85826100a9565b905061038083015b808410156103c3576103b88784868861005e565b9450945094506103a4565b5060009182208581068252909152602090810161010083015b808410156103fb576103f08784868861005e565b9450945094506103dc565b50600091822085810682529091526020908101610b6083015b808410156104375783358084528611949094169360209384019390920191610414565b5060009182208581068252909152602090810161045485826100a9565b90506104628683858761005e565b60009081208881069094529290925293509150602090506104858582848661005e565b92509250925050507f015ed1eb11aeda63673c5cd1d21e7576d6d9b610127552013d058798ad9942a96105a05260036105c05260136105e0527f3064486657634403844b0eac78ca882cfd284341fcb0615a15cfcd17b14d8201610600527f0cf1526aaafac6bacbb67d11a4077806b123f767e4b0883d14cc0193568fc082610620527f20784546081c2aba227a9c15990bf6983ba2a2758faf563f38b437203ee230a9610640527f230385eb1034f58ed905d7dafbbf62da84661de658f682a719d8836889e048576106605260006106805260006106a05260006106c05260006106e0526001610700526002610720527f198e9393920d483a7260bfb731fb5d25f1aa493335a9e71297e485b7aef312c2610740527f1800deef121f1e76426a00665e5c4479674322d4f75edadd46debd5cd992f6ed610760527f090689d0585ff075ec9e99ad690c3395bc4b313370b38ef355acdadcd122975b610780527f12c85ea5db8c6deb4aab71808dcb408fe3d1e7690c43d37b4ce6cc0166fa7daa6107a0527f186282957db913abd99f91db59fe69922e95040603ef44c0bd7aa3adeef8f5ac6107c0527f17944351223333f260ddc3b4af45191b856689eda9eab5cbcddbbe570ce860d26107e0527f06d971ff4a7467c3ec596ed6efc674572e32fd6f52b721f97e35b0b3d3546753610800527f06ecdb9f9567f59ed2eee36e1e1d58797fd13cc97fafc2910f5e8a12f202fa9a610820527f0216e1962b118a871641191e5b56ef67b7234be0ba1f6e65cc3149f4cdf7d2a4610840527f14dcba857f39b53d46db4acec4e59ee5a328d35713fd031114b75025d1ecb3cb610860527f187c9b94532ab54b1021c5f2a0961ed8cc7e6c1d6fba329813fdc75e12010253610880527f0b9e3099fb5fda92a6c4800600cdce14b40592756a6efc7ff6b7c4b016a2b5846108a0527f012490bac7f67b847cf6946033db4a632d4b8c0661c116fe4fc8bc2c5377e3106108c0527f0ce78f7694626a9f6ff31e7aae992e8ec8a9bd5fc1f25b18e3d5cf491e32022e6108e0527f0b0b730c7cc036b250580368804e6ed2056381162d89e0043b5bd98f4ee75f3a610900527f0ac8139daf06f5eea557c933528300d6f404d8695a11179c01e1faf1b8b3fc8e610920527f18bb78b97ae3439de5eb18cc8ff88b94632fd4d4a197ab1d6fbcf7cd4e208e71610940527f0f01ef2f892e9bed184b22e73245e666380819b1f89cdfe8d2a2725099bcc499610960527f07441a798ac3fd5588b3782c716810b647a50765a678f59494231a3317ef8b43610980527f2f8a11be120a83d9907b9090b91a2770d3507502a11b6f928cb1720227e07cb06109a0527f1082dd80327937416906c49ce703e84270f642e316ea7d79764b5d0ca0c176686109c0527f03882a90aef5c45d429a2a7c228f67e1ef92b4053ab40ed9ccca6fba107f5a496109e0527f0762a792c4e078b1a1601f19012b5aa2a802c88ad53ffcd0ddffc52a18441859610a00527f1b8aac3ff017c6c2688fbef6532e0ada2f70d21cb8b20cf918ad75fa40c39059610a20527f1083e2b5a2692c9dfc6bfc36b2c062ce3e9639291634299c2454f6870edc74d4610a40527f113f793e266061a8372644df1b58d827cc8a67a3e5ebbacca8188d0308b3794a610a60526000610a80526000610aa0527f2c3426f6ae01c251eb7b3ad51ac755b2248f56fa8d3eaf6a73e48b658e164514610ac0527f220ec25c20e22e59748822f57735d7dc10cc7bb9ff523a408d7be829a81df34a610ae0526000610b00526000610b20526000610b40526000610b60526000610b80526000610ba0527f0282ccf814185972925dc138ef87c90725017e68e61835dbf7e357bd019e111a610bc0527f12340e976d5284a05acd024637ee9b975e1ffd4fd2687737212667d9ef059090610be0527f0b43a13d09f0eb73dc967846a8013d832fcb609a5fb5bfaaa59476e13003d45b610c00527f2cebd1042aae886ebdb5a1abbb8d07301d9c903d2c46ab07a4780b735dc9a822610c20526000610c40526000610c60527f1374c4c06b1219a9760699a85492f97a0f17ed49ddcfce2248adc9df8cb0926a610c80527f2fce9e1ba999b7449ed4933ed8e2ad23d89e8e9cdde42b6e038e19d02dce3374610ca0526000610cc0526000610ce0526000610d00526000610d20526000610d40526000610d60527f0b5344c0f186b30f1a74579b8a4e31609a59f38cdacaedc651d3c71473d052b6610d80527f0b6d56d0bb6b2b32ea2dab46a3dadd9f8d8a0234edcbf7ac3cd2d532367792af610da0527f0c0f1a2980e4e061ec39b173145e45ff63dac660b1f5cf6ed7980bd61d03d83c610dc0527f2546f6b73d270a25fdac502ff2b4c7d41a6024c5ffe335f3364f4b6f16e6976d610de0526000610e00526000610e20526000610e40526000610e60526000610e80526000610ea0526000610ec0526000610ee0527f049df352acb3a45a7fe15558a157038d557365ff21a562a4d29b99e237818fdb610f00527f1e6ea4545cac489d51144bf36c369196454c8b5d5c483b90017ea64fcfe4963b610f20527f051699300252f4edbb6b52c8061d009f5b885dc0903500bbcfa7827a202a9d1f610f40527f18defa4a959b19b73fbcac2bbd4e9356c94314b19d58ea7c53bed9c25b195d9c610f60527f1a3f2401b386d536dc0a1ff30045d501b609cb23602eedfceef2d4264d602420610f80527f1ca4d5bc2f08eb628b63bae40ea0b40e82102dfc7bad0a4b0aa92d783d22ead2610fa0527f1a3f2401b386d536dc0a1ff30045d501b609cb23602eedfceef2d4264d602420610fc0527f1ca4d5bc2f08eb628b63bae40ea0b40e82102dfc7bad0a4b0aa92d783d22ead2610fe0527f2be8e51f2c72ca2832826b7452c64cf95f1be50f91e93086e0fcf75bf15fad62611000527f16cb505ae9236137ce904d411d583fce2aecc38e72b10398ef4af76cd7dde018611020527f2be8e51f2c72ca2832826b7452c64cf95f1be50f91e93086e0fcf75bf15fad62611040527f16cb505ae9236137ce904d411d583fce2aecc38e72b10398ef4af76cd7dde018611060527f09b8d32874c3fff46fc88d2e9b56513136b556285d9a116cf88ad95081afa015611080527f2ab67ed9a452a52afe519a10499f82cd0980f8fa7cd85dafe76d318bd3163beb6110a0527f09b8d32874c3fff46fc88d2e9b56513136b556285d9a116cf88ad95081afa0156110c0527f2ab67ed9a452a52afe519a10499f82cd0980f8fa7cd85dafe76d318bd3163beb6110e0527f2f0e4409049908c1091a4d3c59a0c816742a61b2c770d1a8caefbf68a4c68e73611100527f0fa4d0dfe99adba964723b4542bb0c4447a255f82d59f7d96168eaa341e0f149611120527f0e7fa261d2f88ea8d8e2666412fa3d3d1faa845793ddb40862e57d1c57fd0aca611140527f22c47c0930845a759ae2cf0397ae00991e40cf516144e0746fb4a5bd48de60d1611160527f044c90ab86815dccc1e3a903952d216cb666880388aeb065b0a530a840ef6fcd611180527f20423a700b0e986380db464d0f9d07a6cd027421064ba401075195b75acb56b76111a0527f296920245ccf20b76d4e25dcae40905b9f1e66c24813b7d0a95f7961fc51b9556111c0527f187c8c0640f7561170b45f89c46e5a6397e97d870323f38b4a4634135beaa3256111e0527f0c61dc15fb70d5a92088f46af977ae587649fa3ecfc442ebcaccf39c9ac728d5611200527f1a03d4641078a2d9d6f7d49430a2e37ea0796dd77fa625339ce2e85d1591de9b611220527f1e6f62336341d1b5b4b957d94793d6b4a7576925fc3a5282a485a4d3bc4fbcb3611240527f091251bea1003098fde04622b373d87834f1d06f8124a1b81ade3cf94a558cb5611260527f19246d84c2260d828f72e1fe7c289dfbe730959849f949d137e5ca40a3b76775611280527f0136424cd2d9e208f63588e0f0e89b3818bbadb6496724321a1965df43c47b286112a0527f304ea1ae8077064dd78a50e5a6e79081418ba22e75cc4d5dcd075e410375c45f6112c0527f14928efe1a73b5d3dc478d2dcf9d51ec52a8b9e52b040846a1d7fd4ec9cedf1e6112e0527f197d80284883061a16dfc9d037cc7e36f55ececbc520f89bc2f79970a81807fb611300527f0e2d5a3c74fcbf61e931c1c74e9b9f9ca916ced24ee34b65e7aac950933cd589611320527f1bb547de66663d2dc23e8269651c33fff970b1ee0ea36ec63824dce7b67f3ef9611340527f1b83c4ec52644683c8dc1810f8a3d83fb6b778226e127474b48334946446245561136052610680511561117d576106c0516106e05160206106a051026114e4016020830260028102600382028335838501358386013583870135896020028801895b818a10156111345760208a0199508935811b86019550888a0135811b85019450878a0135811b84019350868a0135811b830192508a810190506110f6565b50508c60038e8f8788098709088d848509148b169a508c60038e8f8586098509088d828309148b169a508361148052826114a052816114c052806114e052505050505050505050505b8061118757600080fd5b6105e0519250611400518060005b858110156111ab57848283099150600101611195565b5061062051945061150060066105c0510160200281016105c0516111cd576020015b610660515b818310156111f35786818803860883528688820990506020830192506111d2565b508560018703840893508381526112118660208301611500886100c4565b94506115009150856106005185099350610660515b818310156112495786878285510986098352868882099050602083019250611226565b5061152051965061154093506115c091505b81841015611275578584518808965060208401935061125b565b600091506114e46105c05160200281015b808210156112aa578788833588510985089350602082019150602086019550611286565b50505161150080516115c0519490915261152091909152611540526115609590955261158052506115a0929092526113e051600092907f09226b6e22c6f0ca64ec26aad4c86e715b5f898e5e963f25870e56bbe533e9a290610b4435610964356109243586038681830891505085818309965050610c2435905061098435610944358603868183089150508581830991505084818684890908955050610aa435610964356108e4356109243587818308880391508790508183089150508581830991505084818684890908955050610b843561098435610904356109443587818308880391508790508183089150508581830991505084818684890908955050610b0435610964356108e4356109243587818309880391508790508183089150508581830991505084818684890908955050610be43561098435610904356109443587818309880391508790508183089150508581830991505084818684890908955050610ac435610964356108e43561092435870387818308880391508790508183089150508581830991505084818684890908955050610ba435610984356109043561094435870387818308880391508790508183089150508581830991505084818684890908955050610ae435610964356109243586038603868183089150508581830991505084818684890908955050610bc435610984356109443586038603868183089150508581830991505084818684890908955050610b2435610964358581830991505084818684890908955050610c0435610984358581830991505084818684890908955050610b6435610964356000198601868183089050868183099150508581830991505084818684890908955050610c4435610984356000198601868183089050868183099150508581830991505084818684890908955050610c8435610964356109a43560006108e4356109243589818309915050888183089150506109043561094435898183099150508881830891505087818308880391508790508183089150508581830991505084818684890908955050610c64356109643560006108e43561092435888183099150508781830891505061090435610944358881830991505087818308880391508790508183089150508581830991505084818684890908955050610cc43561096435600161092435878183099150506109443587818309880391508790508183089150508581830991505084818684890908955050610ca435610964356109a43560016109243588818309915050610944358881830991505087818309880391508790508183089150508581830991505084818684890908955050610d043561096435600061092435878183089150506109443587818308880391508790508183089150508581830991505084818684890908955050610ce435610964356109a43560006109243588818308915050610944358881830891505087818308880391508790508183089150508581830991505084818684890908955050611580518485610f8435830986038208905084818684890908955050611044358485828703878485090861154051099050848186848909089550508384610fc4358603610fe43508611580510984818684890908955050838461102435860361104435086115805109848186848909089550506113c0516113a051610fa435610f84358788858a8b610e843588096108e4350808830991508788858a8b610ea4358809610904350808830991508788858a8b610ec435880961092435080883099150876114005184096000528788858a6000516108e4350808820990508786600051096000528788858a600051610904350808820990508786600051096000528788858a6000516109243508088209905087866000510960005287818903830893505050508485866115605161154051088309860382089050848186848909089550506113c0516113a05161100435610fe4358788858a8b610ee4358809610944350808830991508788858a8b610f04358809610964350808830991508788858a8b610f24358809610984350808830991508788858a600051610944350808820990508786600051096000528788858a600051610964350808820990508786600051096000528788858a6000516109843508088209905087866000510960005287818903830893505050508485866115605161154051088309860382089050848186848909089550506113c0516113a05161106435611044358788858a8b610f443588096109c4350808830991508788858a8b610f643588096115a0510808830991508788858a6000516109c4350808820990508786600051096000528788858a6000516115a051080882099050878189038308935050505084858661156051611540510883098603820890508481868489090895505061158051846110843582099050848186848909089550506115405184611084358209905084818684890908611380516113a05191975091506109e43580610a043588818187850908925050508682820890506000610d243560018981830991506108e4358a8184099050828b038b818408925050600080516020612eff8339815191528b81840990508b818308915050610964358b81850993505060008b8184099250508a8284089250809350505088818a87850908915050878382086000945091925082919050808880826110c435098a03850893508889611084358b036110a435088a8386090994505050508586828803840887886115405161156051088903600108099150508481868489090895505061158051846110e435820990508481868489090895505061154051846110e4358209905084818684890908611380516113a05191975091506109e43580610a043588818187850908925050508682820890506000610d44356001898183099150610904358a8184099050828b038b818408925050600080516020612eff8339815191528b81840990508b818308915050610984358b81850993505060008b8184099250508a8284089250809350505088818a878509089150508783820860009450919250829190508088808261112435098a038508935088896110e4358b0361110435088a8386090994505050508586828803840887886115405161156051088903600108099150508481868489090895505061158051846111443582099050848186848909089550506115405184611144358209905084818684890908611380516113a05191975091506109e43580610a243588818187850908925050508682820890506000610d643560018981830991506108e4358a8184099050828b038b818408925050600080516020612eff8339815191528b81840990508b818308915050610964358b81850993505060008b8184099250508a8284089250809350505088818a878509089150508783820860009450919250829190508088808261118435098a03850893508889611144358b0361116435088a8386090994505050508586828803840887886115405161156051088903600108099150508481868489090895505061158051846111a435820990508481868489090895505061154051846111a4358209905084818684890908611380516113a05191975091506109e43580610a243588818187850908925050508682820890506000610d84356001898183099150610904358a8184099050828b038b818408925050600080516020612eff8339815191528b81840990508b818308915050610984358b81850993505060008b8184099250508a8284089250809350505088818a87850908915050878382086000945091925082919050808880826111e435098a038508935088896111a4358b036111c435088a8386090994505050508586828803840887886115405161156051088903600108099150508481868489090895505061158051846112043582099050848186848909089550506115405184611204358209905084818684890908611380516113a05191975091506109e43580610a443588818187850908925050508682820890506000610da43560018981830991506108e4358a8184099050828b038b818408925050600080516020612eff8339815191528b81840990508b818308915050610964358b81850993505060008b8184099250508a8284089250809350505088818a878509089150508783820860009450919250829190508088808261124435098a03850893508889611204358b0361122435088a8386090994505050508586828803840887886115405161156051088903600108099150508481868489090895505061158051846112643582099050848186848909089550506115405184611264358209905084818684890908611380516113a05191975091506109e43580610a443588818187850908925050508682820890506000610dc4356001898183099150610904358a8184099050828b038b818408925050600080516020612eff8339815191528b81840990508b818308915050610984358b81850993505060008b8184099250508a8284089250809350505088818a87850908915050878382086000945091925082919050808880826112a435098a03850893508889611264358b0361128435088a8386090994505050508586828803840887886115405161156051088903600108099150508481868489090895505061158051846112c435820990508481868489090895505061154051846112c4358209905084818684890908611380516113a05191975091506109e43580610a643588818187850908925050508682820890506000610de43560018981830991506108e4358a8184099050828b038b818408925050600080516020612eff8339815191528b81840990508b818308915050610964358b81850993505060008b8184099250508a8284089250809350505088818a878509089150508783820860009450919250829190508088808261130435098a038508935088896112c4358b036112e435088a8386090994505050508586828803840887886115405161156051088903600108099150508481868489090895505061158051846113243582099050848186848909089550506115405184611324358209905084818684890908611380516113a05191975091506109e43580610a643588818187850908925050508682820890506000610e04356001898183099150610904358a8184099050828b038b818408925050600080516020612eff8339815191528b81840990508b818308915050610984358b81850993505060008b8184099250508a8284089250809350505088818a878509089150508783820860009450919250829190508088808261136435098a03850893508889611324358b0361134435088a83860909945050505085868288038408878861154051611560510889036001080991505084818684890908955050611580518461138435820990508481868489090895505061154051846113843582099050848186848909086113a0519096509050610a84358582820890506000610e24356108e435888183099189039190506001898382089250507f30644e72e131a029b85045b68181585d2833e84879b9709143e1f593efffffff89818409925050888282089250889150849050820860009350905081818880826113c435098a03830891508889611384358b036113a435088a838709099450508788828a038608898a6115405161156051088b036001080993505050508481868489090895505061158051846113e435820990508481868489090895505061154051846113e43582099050848186848909086113a0519096509050610a84358582820890506000610e443561090435888183099189039190506001898382089250507f30644e72e131a029b85045b68181585d2833e84879b9709143e1f593efffffff898184099250508882820892508891508490508208600093509050818188808261142435098a038308915088896113e4358b0361140435088a838709099450508788828a038608898a6115405161156051088b03600108099350505050848186848909089550505050816115205184096115c0526108a4356000526108c4356020526115005192506108646107a45b8181101561244b5761242c85846101a2565b925061243e6020830135833585610182565b925060408203915061241a565b50506000516115e052602051611600526114005192506106205161064051838286099150816103605284610340528381860991508161032052838183099150838183099150838183099150838183099150838183099150508061030052506114605192506103806104006103005b818310156124d657848151860387088352602092830192016124b9565b50506103c0516104005250610380516103a051909350829084099250816103e05184099250826104205282600052610380519250816103e0518409610440526103a05161046081905261038051935082908409610480526103c0516001935082908409602052610320516103405190935060008382810386089050836103a05182099050806040528385850383089050836103c05182096060525050610300516103405161036051919450906000848381038708905084858387038808820990508461038051820990508060805284868603840890508485838703850882099050846103c051820990508060a05284868603830890508485848703840882099050846103e051820960c05250506103405161036051909450905060008382810386089050836103c051820990508060e0528385850383089050836103e0518209610100525061262c9050826101206000846100c4565b9050600051925082610420526104406104a05b80821015612659578385835109825260208201915061263f565b505060205192506114205160008384610e643587098208905083828209905083846115c051870982089050610f64610e645b818110156126ab578586833589098786860908925060208203915061268b565b5050610e446109a45b818110156126d457858683358909878686090892506020820391506126b4565b505083828209905083846114243587098208905083828209905083846113c43587098208905083828209905083846113643587098208905083828209905083846113043587098208905083828209905083846112a43587098208905083828209905083846112443587098208905083828209905083846111e43587098208905083828209905083846111843587098208905083828209905083846111243587098208905083828209905083846110c4358709820890508382820990508384610984358709820890506109446108c45b818110156127c357858683358909878686090892506020820391506127a3565b50506104a0525060405160009350829081906109a4359009840892508182610964356060510984089250816104405184099250826104c052611420519250600082836110243560805109820890508283610fe43560a051098208905082836110043560c05109820890508284820990508283610fc43560805109820890508283610f843560a05109820890508283610fa43560c0510982089050826104605182099050806104e05250611420519250600082836113e43560e051098208905082836114043561010051098208905082848209905082836113843560e051098208905082836113a43561010051098208905082848209905082836113243560e051098208905082836113443561010051098208905082848209905082836112c43560e051098208905082836112e43561010051098208905082848209905082836112643560e051098208905082836112843561010051098208905082848209905082836112043560e051098208905082836112243561010051098208905082848209905082836111a43560e051098208905082836111c43561010051098208905082848209905082836111443560e051098208905082836111643561010051098208905082848209905082836110e43560e051098208905082836111043561010051098208905082848209905082836110843560e051098208905082836110a43561010051098208905082848209905082836110443560e051098208905082836110643561010051098208905082610480518209610500525060205161052052604051606051909350829084086105405260805160a0519093508290840892508160c05184086105605260e0516101005190935082908408610580526000925060806105205b81851015612a60578051855260209485019401612a48565b5050612a708260806000846100c4565b90508161050051606051099250604060806104e05b81831015612aae578461144051870995508485825185510987089550601f199283019201612a85565b50505082611620526114405192506107a4356000526107c435602052612ad761142051826101a2565b9050612aea611600516115e05183610182565b90506113406108005b81811015612b2757612b0861142051846101a2565b9250612b1a6020830151835185610182565b9250604082039150612af3565b50506104246101645b81811015612b6457612b4561142051846101a2565b9250612b576020830135833585610182565b9250604082039150612b30565b505061012460245b81811015612ba057612b8161142051846101a2565b9250612b936020830135833585610182565b9250604082039150612b6c565b5050610164356080526101843560a052612bc082610440518509826101dc565b9050612bd160a05160805183610182565b90508161144051840992506104a4356080526104c43560a052612bf761142051826101dc565b9050612c0a6104843561046435836101bd565b9050612c1c82610460518509826101dc565b9050612c2d60a05160805183610182565b9050816114405184099250610764356080526107843560a0526107246104a45b81811015612c8157612c6261142051846101dc565b9250612c7460208301358335856101bd565b9250604082039150612c4d565b5050612c9382610480518509826101dc565b9050612ca460a05160805183610182565b9050610700516080526107205160a052612cc3611620518303826101dc565b9050612cd460a05160805183610182565b9050611444356080526114643560a052612cf3610400518303826101dc565b9050612d0460a05160805183610182565b9050611484356080526114a43560a052612d2161146051826101dc565b9050612d3260a05160805183610182565b9050600051611640526020516116605261148435611680526114a4356116a0526106805115612e0657611480516000526114a0516020526114c0516040526114e051606052611640516080526116605160a0526116805160c0526116a05160e05281610100600020069250612da783826101a2565b9050612dba611660516116405183610182565b905060005161164052602051611660526114c0516000526114e051602052612de283826101a2565b9050612df56116a0516116805183610182565b9050600051611680526020516116a0525b612e1f6116a051611680516116605161164051856101f7565b905080612e2b57600080fd5b505050600160005260206000f35b60008060008060408587031215612e4f57600080fd5b843567ffffffffffffffff80821115612e6757600080fd5b818701915087601f830112612e7b57600080fd5b813581811115612e8a57600080fd5b886020828501011115612e9c57600080fd5b602092830196509450908601359080821115612eb757600080fd5b818701915087601f830112612ecb57600080fd5b813581811115612eda57600080fd5b8860208260051b8501011115612eef57600080fd5b9598949750506020019450505056fe30644e72e131a029b85045b68181585d2833e84879b9709143e1f593efffe15fa2646970667358221220233197e92a8345f9168fa39941b58179427abaa5427d6ad2396165a8445a48f964736f6c63430008110033",
  "devdoc": {
    "kind": "dev",
    "methods": {},
    "version": 1
  },
  "userdoc": {
    "kind": "user",
    "methods": {},
    "version": 1
  },
  "storageLayout": {
    "storage": [],
    "types": null
  }
}